{
  "contractName": "NFT",
  "abi": [
    {
      "inputs": [],
      "stateMutability": "nonpayable",
      "type": "constructor"
    },
    {
      "anonymous": false,
      "inputs": [
        {
          "indexed": true,
          "internalType": "address",
          "name": "owner",
          "type": "address"
        },
        {
          "indexed": true,
          "internalType": "address",
          "name": "approved",
          "type": "address"
        },
        {
          "indexed": true,
          "internalType": "uint256",
          "name": "tokenId",
          "type": "uint256"
        }
      ],
      "name": "Approval",
      "type": "event"
    },
    {
      "anonymous": false,
      "inputs": [
        {
          "indexed": true,
          "internalType": "address",
          "name": "owner",
          "type": "address"
        },
        {
          "indexed": true,
          "internalType": "address",
          "name": "operator",
          "type": "address"
        },
        {
          "indexed": false,
          "internalType": "bool",
          "name": "approved",
          "type": "bool"
        }
      ],
      "name": "ApprovalForAll",
      "type": "event"
    },
    {
      "anonymous": false,
      "inputs": [
        {
          "indexed": true,
          "internalType": "address",
          "name": "previousOwner",
          "type": "address"
        },
        {
          "indexed": true,
          "internalType": "address",
          "name": "newOwner",
          "type": "address"
        }
      ],
      "name": "OwnershipTransferred",
      "type": "event"
    },
    {
      "anonymous": false,
      "inputs": [
        {
          "indexed": false,
          "internalType": "address",
          "name": "owner",
          "type": "address"
        },
        {
          "indexed": false,
          "internalType": "uint256",
          "name": "price",
          "type": "uint256"
        },
        {
          "indexed": false,
          "internalType": "uint256",
          "name": "id",
          "type": "uint256"
        },
        {
          "indexed": false,
          "internalType": "string",
          "name": "uri",
          "type": "string"
        }
      ],
      "name": "Purchase",
      "type": "event"
    },
    {
      "anonymous": false,
      "inputs": [
        {
          "indexed": true,
          "internalType": "address",
          "name": "from",
          "type": "address"
        },
        {
          "indexed": true,
          "internalType": "address",
          "name": "to",
          "type": "address"
        },
        {
          "indexed": true,
          "internalType": "uint256",
          "name": "tokenId",
          "type": "uint256"
        }
      ],
      "name": "Transfer",
      "type": "event"
    },
    {
      "inputs": [],
      "name": "_owner",
      "outputs": [
        {
          "internalType": "address payable",
          "name": "",
          "type": "address"
        }
      ],
      "stateMutability": "view",
      "type": "function",
      "constant": true
    },
    {
      "inputs": [
        {
          "internalType": "address",
          "name": "to",
          "type": "address"
        },
        {
          "internalType": "uint256",
          "name": "tokenId",
          "type": "uint256"
        }
      ],
      "name": "approve",
      "outputs": [],
      "stateMutability": "nonpayable",
      "type": "function"
    },
    {
      "inputs": [
        {
          "internalType": "address",
          "name": "owner",
          "type": "address"
        }
      ],
      "name": "balanceOf",
      "outputs": [
        {
          "internalType": "uint256",
          "name": "",
          "type": "uint256"
        }
      ],
      "stateMutability": "view",
      "type": "function",
      "constant": true
    },
    {
      "inputs": [],
      "name": "baseURI",
      "outputs": [
        {
          "internalType": "string",
          "name": "",
          "type": "string"
        }
      ],
      "stateMutability": "view",
      "type": "function",
      "constant": true
    },
    {
      "inputs": [
        {
          "internalType": "uint256",
          "name": "tokenId",
          "type": "uint256"
        }
      ],
      "name": "getApproved",
      "outputs": [
        {
          "internalType": "address",
          "name": "",
          "type": "address"
        }
      ],
      "stateMutability": "view",
      "type": "function",
      "constant": true
    },
    {
      "inputs": [
        {
          "internalType": "address",
          "name": "owner",
          "type": "address"
        },
        {
          "internalType": "address",
          "name": "operator",
          "type": "address"
        }
      ],
      "name": "isApprovedForAll",
      "outputs": [
        {
          "internalType": "bool",
          "name": "",
          "type": "bool"
        }
      ],
      "stateMutability": "view",
      "type": "function",
      "constant": true
    },
    {
      "inputs": [],
      "name": "name",
      "outputs": [
        {
          "internalType": "string",
          "name": "",
          "type": "string"
        }
      ],
      "stateMutability": "view",
      "type": "function",
      "constant": true
    },
    {
      "inputs": [],
      "name": "owner",
      "outputs": [
        {
          "internalType": "address",
          "name": "",
          "type": "address"
        }
      ],
      "stateMutability": "view",
      "type": "function",
      "constant": true
    },
    {
      "inputs": [
        {
          "internalType": "uint256",
          "name": "tokenId",
          "type": "uint256"
        }
      ],
      "name": "ownerOf",
      "outputs": [
        {
          "internalType": "address",
          "name": "",
          "type": "address"
        }
      ],
      "stateMutability": "view",
      "type": "function",
      "constant": true
    },
    {
      "inputs": [
        {
          "internalType": "uint256",
          "name": "",
          "type": "uint256"
        }
      ],
      "name": "price",
      "outputs": [
        {
          "internalType": "uint256",
          "name": "",
          "type": "uint256"
        }
      ],
      "stateMutability": "view",
      "type": "function",
      "constant": true
    },
    {
      "inputs": [],
      "name": "renounceOwnership",
      "outputs": [],
      "stateMutability": "nonpayable",
      "type": "function"
    },
    {
      "inputs": [
        {
          "internalType": "address",
          "name": "from",
          "type": "address"
        },
        {
          "internalType": "address",
          "name": "to",
          "type": "address"
        },
        {
          "internalType": "uint256",
          "name": "tokenId",
          "type": "uint256"
        }
      ],
      "name": "safeTransferFrom",
      "outputs": [],
      "stateMutability": "nonpayable",
      "type": "function"
    },
    {
      "inputs": [
        {
          "internalType": "address",
          "name": "from",
          "type": "address"
        },
        {
          "internalType": "address",
          "name": "to",
          "type": "address"
        },
        {
          "internalType": "uint256",
          "name": "tokenId",
          "type": "uint256"
        },
        {
          "internalType": "bytes",
          "name": "_data",
          "type": "bytes"
        }
      ],
      "name": "safeTransferFrom",
      "outputs": [],
      "stateMutability": "nonpayable",
      "type": "function"
    },
    {
      "inputs": [
        {
          "internalType": "address",
          "name": "operator",
          "type": "address"
        },
        {
          "internalType": "bool",
          "name": "approved",
          "type": "bool"
        }
      ],
      "name": "setApprovalForAll",
      "outputs": [],
      "stateMutability": "nonpayable",
      "type": "function"
    },
    {
      "inputs": [
        {
          "internalType": "uint256",
          "name": "",
          "type": "uint256"
        }
      ],
      "name": "sold",
      "outputs": [
        {
          "internalType": "bool",
          "name": "",
          "type": "bool"
        }
      ],
      "stateMutability": "view",
      "type": "function",
      "constant": true
    },
    {
      "inputs": [
        {
          "internalType": "bytes4",
          "name": "interfaceId",
          "type": "bytes4"
        }
      ],
      "name": "supportsInterface",
      "outputs": [
        {
          "internalType": "bool",
          "name": "",
          "type": "bool"
        }
      ],
      "stateMutability": "view",
      "type": "function",
      "constant": true
    },
    {
      "inputs": [],
      "name": "symbol",
      "outputs": [
        {
          "internalType": "string",
          "name": "",
          "type": "string"
        }
      ],
      "stateMutability": "view",
      "type": "function",
      "constant": true
    },
    {
      "inputs": [
        {
          "internalType": "uint256",
          "name": "index",
          "type": "uint256"
        }
      ],
      "name": "tokenByIndex",
      "outputs": [
        {
          "internalType": "uint256",
          "name": "",
          "type": "uint256"
        }
      ],
      "stateMutability": "view",
      "type": "function",
      "constant": true
    },
    {
      "inputs": [
        {
          "internalType": "address",
          "name": "owner",
          "type": "address"
        },
        {
          "internalType": "uint256",
          "name": "index",
          "type": "uint256"
        }
      ],
      "name": "tokenOfOwnerByIndex",
      "outputs": [
        {
          "internalType": "uint256",
          "name": "",
          "type": "uint256"
        }
      ],
      "stateMutability": "view",
      "type": "function",
      "constant": true
    },
    {
      "inputs": [
        {
          "internalType": "uint256",
          "name": "tokenId",
          "type": "uint256"
        }
      ],
      "name": "tokenURI",
      "outputs": [
        {
          "internalType": "string",
          "name": "",
          "type": "string"
        }
      ],
      "stateMutability": "view",
      "type": "function",
      "constant": true
    },
    {
      "inputs": [],
      "name": "totalSupply",
      "outputs": [
        {
          "internalType": "uint256",
          "name": "",
          "type": "uint256"
        }
      ],
      "stateMutability": "view",
      "type": "function",
      "constant": true
    },
    {
      "inputs": [
        {
          "internalType": "address",
          "name": "from",
          "type": "address"
        },
        {
          "internalType": "address",
          "name": "to",
          "type": "address"
        },
        {
          "internalType": "uint256",
          "name": "tokenId",
          "type": "uint256"
        }
      ],
      "name": "transferFrom",
      "outputs": [],
      "stateMutability": "nonpayable",
      "type": "function"
    },
    {
      "inputs": [
        {
          "internalType": "address",
          "name": "newOwner",
          "type": "address"
        }
      ],
      "name": "transferOwnership",
      "outputs": [],
      "stateMutability": "nonpayable",
      "type": "function"
    },
    {
      "inputs": [
        {
          "internalType": "string",
          "name": "_tokenURI",
          "type": "string"
        },
        {
          "internalType": "uint256",
          "name": "_price",
          "type": "uint256"
        }
      ],
      "name": "mint",
      "outputs": [
        {
          "internalType": "bool",
          "name": "",
          "type": "bool"
        }
      ],
      "stateMutability": "nonpayable",
      "type": "function"
    },
    {
      "inputs": [
        {
          "internalType": "uint256",
          "name": "_id",
          "type": "uint256"
        }
      ],
      "name": "buy",
      "outputs": [],
      "stateMutability": "payable",
      "type": "function",
      "payable": true
    }
  ],
  "bytecode": "0x60806040523480156200001157600080fd5b506040518060400160405280600b81526020017f4e4654204558414d504c450000000000000000000000000000000000000000008152506040518060400160405280600781526020017f4558414d504c4500000000000000000000000000000000000000000000000000815250620000966301ffc9a760e01b6200020a60201b60201c565b8160069080519060200190620000ae9291906200031b565b508060079080519060200190620000c79291906200031b565b50620000e06380ac58cd60e01b6200020a60201b60201c565b620000f8635b5e139f60e01b6200020a60201b60201c565b6200011063780e9d6360e01b6200020a60201b60201c565b50506000620001246200031360201b60201c565b905080600a60006101000a81548173ffffffffffffffffffffffffffffffffffffffff021916908373ffffffffffffffffffffffffffffffffffffffff1602179055508073ffffffffffffffffffffffffffffffffffffffff16600073ffffffffffffffffffffffffffffffffffffffff167f8be0079c531659141344cd1fd0a4f28419497f9722a3daafe3b4186f6b6457e060405160405180910390a35033600b60006101000a81548173ffffffffffffffffffffffffffffffffffffffff021916908373ffffffffffffffffffffffffffffffffffffffff160217905550620003d1565b63ffffffff60e01b817bffffffffffffffffffffffffffffffffffffffffffffffffffffffff19161415620002a7576040517f08c379a000000000000000000000000000000000000000000000000000000000815260040180806020018281038252601c8152602001807f4552433136353a20696e76616c696420696e746572666163652069640000000081525060200191505060405180910390fd5b6001600080837bffffffffffffffffffffffffffffffffffffffffffffffffffffffff19167bffffffffffffffffffffffffffffffffffffffffffffffffffffffff1916815260200190815260200160002060006101000a81548160ff02191690831515021790555050565b600033905090565b828054600181600116156101000203166002900490600052602060002090601f0160209004810192826200035357600085556200039f565b82601f106200036e57805160ff19168380011785556200039f565b828001600101855582156200039f579182015b828111156200039e57825182559160200191906001019062000381565b5b509050620003ae9190620003b2565b5090565b5b80821115620003cd576000816000905550600101620003b3565b5090565b61369380620003e16000396000f3fe6080604052600436106101665760003560e01c80636c0360eb116100d1578063a22cb4651161008a578063c87b56dd11610064578063c87b56dd14610a84578063d96a094a14610b38578063e985e9c514610b66578063f2fde38b14610bed57610166565b8063a22cb465146108d4578063b2bdfa7b14610931578063b88d4fde1461097257610166565b80636c0360eb146106a657806370a0823114610736578063715018a61461079b5780638da5cb5b146107b257806395d89b41146107f35780639c03facb1461088357610166565b806323b872dd1161012357806323b872dd1461043e57806326a49e37146104b95780632f745c591461050857806342842e0e146105775780634f6ccce7146105f25780636352211e1461064157610166565b806301ffc9a71461016b578063056b01ce146101db57806306fdde03146102c3578063081812fc14610353578063095ea7b3146103b857806318160ddd14610413575b600080fd5b34801561017757600080fd5b506101c36004803603602081101561018e57600080fd5b8101908080357bffffffffffffffffffffffffffffffffffffffffffffffffffffffff19169060200190929190505050610c3e565b60405180821515815260200191505060405180910390f35b3480156101e757600080fd5b506102ab600480360360408110156101fe57600080fd5b810190808035906020019064010000000081111561021b57600080fd5b82018360208201111561022d57600080fd5b8035906020019184600183028401116401000000008311171561024f57600080fd5b91908080601f016020809104026020016040519081016040528093929190818152602001838380828437600081840152601f19601f82011690508083019250505050505050919291929080359060200190929190505050610ca5565b60405180821515815260200191505060405180910390f35b3480156102cf57600080fd5b506102d8610d9c565b6040518080602001828103825283818151815260200191508051906020019080838360005b838110156103185780820151818401526020810190506102fd565b50505050905090810190601f1680156103455780820380516001836020036101000a031916815260200191505b509250505060405180910390f35b34801561035f57600080fd5b5061038c6004803603602081101561037657600080fd5b8101908080359060200190929190505050610e3e565b604051808273ffffffffffffffffffffffffffffffffffffffff16815260200191505060405180910390f35b3480156103c457600080fd5b50610411600480360360408110156103db57600080fd5b81019080803573ffffffffffffffffffffffffffffffffffffffff16906020019092919080359060200190929190505050610ed9565b005b34801561041f57600080fd5b5061042861101d565b6040518082815260200191505060405180910390f35b34801561044a57600080fd5b506104b76004803603606081101561046157600080fd5b81019080803573ffffffffffffffffffffffffffffffffffffffff169060200190929190803573ffffffffffffffffffffffffffffffffffffffff1690602001909291908035906020019092919050505061102e565b005b3480156104c557600080fd5b506104f2600480360360208110156104dc57600080fd5b81019080803590602001909291905050506110a4565b6040518082815260200191505060405180910390f35b34801561051457600080fd5b506105616004803603604081101561052b57600080fd5b81019080803573ffffffffffffffffffffffffffffffffffffffff169060200190929190803590602001909291905050506110bc565b6040518082815260200191505060405180910390f35b34801561058357600080fd5b506105f06004803603606081101561059a57600080fd5b81019080803573ffffffffffffffffffffffffffffffffffffffff169060200190929190803573ffffffffffffffffffffffffffffffffffffffff16906020019092919080359060200190929190505050611117565b005b3480156105fe57600080fd5b5061062b6004803603602081101561061557600080fd5b8101908080359060200190929190505050611137565b6040518082815260200191505060405180910390f35b34801561064d57600080fd5b5061067a6004803603602081101561066457600080fd5b810190808035906020019092919050505061115a565b604051808273ffffffffffffffffffffffffffffffffffffffff16815260200191505060405180910390f35b3480156106b257600080fd5b506106bb611191565b6040518080602001828103825283818151815260200191508051906020019080838360005b838110156106fb5780820151818401526020810190506106e0565b50505050905090810190601f1680156107285780820380516001836020036101000a031916815260200191505b509250505060405180910390f35b34801561074257600080fd5b506107856004803603602081101561075957600080fd5b81019080803573ffffffffffffffffffffffffffffffffffffffff169060200190929190505050611233565b6040518082815260200191505060405180910390f35b3480156107a757600080fd5b506107b0611308565b005b3480156107be57600080fd5b506107c7611478565b604051808273ffffffffffffffffffffffffffffffffffffffff16815260200191505060405180910390f35b3480156107ff57600080fd5b506108086114a2565b6040518080602001828103825283818151815260200191508051906020019080838360005b8381101561084857808201518184015260208101905061082d565b50505050905090810190601f1680156108755780820380516001836020036101000a031916815260200191505b509250505060405180910390f35b34801561088f57600080fd5b506108bc600480360360208110156108a657600080fd5b8101908080359060200190929190505050611544565b60405180821515815260200191505060405180910390f35b3480156108e057600080fd5b5061092f600480360360408110156108f757600080fd5b81019080803573ffffffffffffffffffffffffffffffffffffffff169060200190929190803515159060200190929190505050611564565b005b34801561093d57600080fd5b5061094661171a565b604051808273ffffffffffffffffffffffffffffffffffffffff16815260200191505060405180910390f35b34801561097e57600080fd5b50610a826004803603608081101561099557600080fd5b81019080803573ffffffffffffffffffffffffffffffffffffffff169060200190929190803573ffffffffffffffffffffffffffffffffffffffff16906020019092919080359060200190929190803590602001906401000000008111156109fc57600080fd5b820183602082011115610a0e57600080fd5b80359060200191846001830284011164010000000083111715610a3057600080fd5b91908080601f016020809104026020016040519081016040528093929190818152602001838380828437600081840152601f19601f820116905080830192505050505050509192919290505050611740565b005b348015610a9057600080fd5b50610abd60048036036020811015610aa757600080fd5b81019080803590602001909291905050506117b8565b6040518080602001828103825283818151815260200191508051906020019080838360005b83811015610afd578082015181840152602081019050610ae2565b50505050905090810190601f168015610b2a5780820380516001836020036101000a031916815260200191505b509250505060405180910390f35b610b6460048036036020811015610b4e57600080fd5b8101908080359060200190929190505050611a89565b005b348015610b7257600080fd5b50610bd560048036036040811015610b8957600080fd5b81019080803573ffffffffffffffffffffffffffffffffffffffff169060200190929190803573ffffffffffffffffffffffffffffffffffffffff169060200190929190505050611b83565b60405180821515815260200191505060405180910390f35b348015610bf957600080fd5b50610c3c60048036036020811015610c1057600080fd5b81019080803573ffffffffffffffffffffffffffffffffffffffff169060200190929190505050611c17565b005b6000806000837bffffffffffffffffffffffffffffffffffffffffffffffffffffffff19167bffffffffffffffffffffffffffffffffffffffffffffffffffffffff1916815260200190815260200160002060009054906101000a900460ff169050919050565b6000610caf611e0c565b73ffffffffffffffffffffffffffffffffffffffff16610ccd611478565b73ffffffffffffffffffffffffffffffffffffffff1614610d56576040517f08c379a00000000000000000000000000000000000000000000000000000000081526004018080602001828103825260208152602001807f4f776e61626c653a2063616c6c6572206973206e6f7420746865206f776e657281525060200191505060405180910390fd5b60006001610d6261101d565b01905082600d600083815260200190815260200160002081905550610d873082611e14565b610d918185612008565b600191505092915050565b606060068054600181600116156101000203166002900480601f016020809104026020016040519081016040528092919081815260200182805460018160011615610100020316600290048015610e345780601f10610e0957610100808354040283529160200191610e34565b820191906000526020600020905b815481529060010190602001808311610e1757829003601f168201915b5050505050905090565b6000610e4982612092565b610e9e576040517f08c379a000000000000000000000000000000000000000000000000000000000815260040180806020018281038252602c81526020018061355c602c913960400191505060405180910390fd5b6004600083815260200190815260200160002060009054906101000a900473ffffffffffffffffffffffffffffffffffffffff169050919050565b6000610ee48261115a565b90508073ffffffffffffffffffffffffffffffffffffffff168373ffffffffffffffffffffffffffffffffffffffff161415610f6b576040517f08c379a000000000000000000000000000000000000000000000000000000000815260040180806020018281038252602181526020018061360c6021913960400191505060405180910390fd5b8073ffffffffffffffffffffffffffffffffffffffff16610f8a611e0c565b73ffffffffffffffffffffffffffffffffffffffff161480610fb95750610fb881610fb3611e0c565b611b83565b5b61100e576040517f08c379a00000000000000000000000000000000000000000000000000000000081526004018080602001828103825260388152602001806134af6038913960400191505060405180910390fd5b61101883836120af565b505050565b60006110296002612168565b905090565b61103f611039611e0c565b8261217d565b611094576040517f08c379a000000000000000000000000000000000000000000000000000000000815260040180806020018281038252603181526020018061362d6031913960400191505060405180910390fd5b61109f838383612271565b505050565b600d6020528060005260406000206000915090505481565b600061110f82600160008673ffffffffffffffffffffffffffffffffffffffff1673ffffffffffffffffffffffffffffffffffffffff1681526020019081526020016000206124b490919063ffffffff16565b905092915050565b61113283838360405180602001604052806000815250611740565b505050565b60008061114e8360026124ce90919063ffffffff16565b50905080915050919050565b600061118a826040518060600160405280602981526020016135116029913960026124fa9092919063ffffffff16565b9050919050565b606060098054600181600116156101000203166002900480601f0160208091040260200160405190810160405280929190818152602001828054600181600116156101000203166002900480156112295780601f106111fe57610100808354040283529160200191611229565b820191906000526020600020905b81548152906001019060200180831161120c57829003601f168201915b5050505050905090565b60008073ffffffffffffffffffffffffffffffffffffffff168273ffffffffffffffffffffffffffffffffffffffff1614156112ba576040517f08c379a000000000000000000000000000000000000000000000000000000000815260040180806020018281038252602a8152602001806134e7602a913960400191505060405180910390fd5b611301600160008473ffffffffffffffffffffffffffffffffffffffff1673ffffffffffffffffffffffffffffffffffffffff168152602001908152602001600020612519565b9050919050565b611310611e0c565b73ffffffffffffffffffffffffffffffffffffffff1661132e611478565b73ffffffffffffffffffffffffffffffffffffffff16146113b7576040517f08c379a00000000000000000000000000000000000000000000000000000000081526004018080602001828103825260208152602001807f4f776e61626c653a2063616c6c6572206973206e6f7420746865206f776e657281525060200191505060405180910390fd5b600073ffffffffffffffffffffffffffffffffffffffff16600a60009054906101000a900473ffffffffffffffffffffffffffffffffffffffff1673ffffffffffffffffffffffffffffffffffffffff167f8be0079c531659141344cd1fd0a4f28419497f9722a3daafe3b4186f6b6457e060405160405180910390a36000600a60006101000a81548173ffffffffffffffffffffffffffffffffffffffff021916908373ffffffffffffffffffffffffffffffffffffffff160217905550565b6000600a60009054906101000a900473ffffffffffffffffffffffffffffffffffffffff16905090565b606060078054600181600116156101000203166002900480601f01602080910402602001604051908101604052809291908181526020018280546001816001161561010002031660029004801561153a5780601f1061150f5761010080835404028352916020019161153a565b820191906000526020600020905b81548152906001019060200180831161151d57829003601f168201915b5050505050905090565b600c6020528060005260406000206000915054906101000a900460ff1681565b61156c611e0c565b73ffffffffffffffffffffffffffffffffffffffff168273ffffffffffffffffffffffffffffffffffffffff16141561160d576040517f08c379a00000000000000000000000000000000000000000000000000000000081526004018080602001828103825260198152602001807f4552433732313a20617070726f766520746f2063616c6c65720000000000000081525060200191505060405180910390fd5b806005600061161a611e0c565b73ffffffffffffffffffffffffffffffffffffffff1673ffffffffffffffffffffffffffffffffffffffff16815260200190815260200160002060008473ffffffffffffffffffffffffffffffffffffffff1673ffffffffffffffffffffffffffffffffffffffff16815260200190815260200160002060006101000a81548160ff0219169083151502179055508173ffffffffffffffffffffffffffffffffffffffff166116c7611e0c565b73ffffffffffffffffffffffffffffffffffffffff167f17307eab39ab6107e8899845ad3d59bd9653f200f220920489ca2b5937696c318360405180821515815260200191505060405180910390a35050565b600b60009054906101000a900473ffffffffffffffffffffffffffffffffffffffff1681565b61175161174b611e0c565b8361217d565b6117a6576040517f08c379a000000000000000000000000000000000000000000000000000000000815260040180806020018281038252603181526020018061362d6031913960400191505060405180910390fd5b6117b28484848461252e565b50505050565b60606117c382612092565b611818576040517f08c379a000000000000000000000000000000000000000000000000000000000815260040180806020018281038252602f8152602001806135dd602f913960400191505060405180910390fd5b6000600860008481526020019081526020016000208054600181600116156101000203166002900480601f0160208091040260200160405190810160405280929190818152602001828054600181600116156101000203166002900480156118c15780601f10611896576101008083540402835291602001916118c1565b820191906000526020600020905b8154815290600101906020018083116118a457829003601f168201915b5050505050905060006118d2611191565b90506000815114156118e8578192505050611a84565b6000825111156119b95780826040516020018083805190602001908083835b6020831061192a5780518252602082019150602081019050602083039250611907565b6001836020036101000a03801982511681845116808217855250505050505090500182805190602001908083835b6020831061197b5780518252602082019150602081019050602083039250611958565b6001836020036101000a0380198251168184511680821785525050505050509050019250505060405160208183030381529060405292505050611a84565b806119c3856125a0565b6040516020018083805190602001908083835b602083106119f957805182526020820191506020810190506020830392506119d6565b6001836020036101000a03801982511681845116808217855250505050505090500182805190602001908083835b60208310611a4a5780518252602082019150602081019050602083039250611a27565b6001836020036101000a03801982511681845116808217855250505050505090500192505050604051602081830303815290604052925050505b919050565b611a92816126e7565b611a9b81612882565b7f6d5507734d4d9e8592119c9e6b3e2bf7eab8bd6252f36e2fa05a5588442479da33600d60008481526020019081526020016000205483611adb856117b8565b604051808573ffffffffffffffffffffffffffffffffffffffff16815260200184815260200183815260200180602001828103825283818151815260200191508051906020019080838360005b83811015611b43578082015181840152602081019050611b28565b50505050905090810190601f168015611b705780820380516001836020036101000a031916815260200191505b509550505050505060405180910390a150565b6000600560008473ffffffffffffffffffffffffffffffffffffffff1673ffffffffffffffffffffffffffffffffffffffff16815260200190815260200160002060008373ffffffffffffffffffffffffffffffffffffffff1673ffffffffffffffffffffffffffffffffffffffff16815260200190815260200160002060009054906101000a900460ff16905092915050565b611c1f611e0c565b73ffffffffffffffffffffffffffffffffffffffff16611c3d611478565b73ffffffffffffffffffffffffffffffffffffffff1614611cc6576040517f08c379a00000000000000000000000000000000000000000000000000000000081526004018080602001828103825260208152602001807f4f776e61626c653a2063616c6c6572206973206e6f7420746865206f776e657281525060200191505060405180910390fd5b600073ffffffffffffffffffffffffffffffffffffffff168173ffffffffffffffffffffffffffffffffffffffff161415611d4c576040517f08c379a00000000000000000000000000000000000000000000000000000000081526004018080602001828103825260268152602001806134136026913960400191505060405180910390fd5b8073ffffffffffffffffffffffffffffffffffffffff16600a60009054906101000a900473ffffffffffffffffffffffffffffffffffffffff1673ffffffffffffffffffffffffffffffffffffffff167f8be0079c531659141344cd1fd0a4f28419497f9722a3daafe3b4186f6b6457e060405160405180910390a380600a60006101000a81548173ffffffffffffffffffffffffffffffffffffffff021916908373ffffffffffffffffffffffffffffffffffffffff16021790555050565b600033905090565b600073ffffffffffffffffffffffffffffffffffffffff168273ffffffffffffffffffffffffffffffffffffffff161415611eb7576040517f08c379a00000000000000000000000000000000000000000000000000000000081526004018080602001828103825260208152602001807f4552433732313a206d696e7420746f20746865207a65726f206164647265737381525060200191505060405180910390fd5b611ec081612092565b15611f33576040517f08c379a000000000000000000000000000000000000000000000000000000000815260040180806020018281038252601c8152602001807f4552433732313a20746f6b656e20616c7265616479206d696e7465640000000081525060200191505060405180910390fd5b611f3f60008383612925565b611f9081600160008573ffffffffffffffffffffffffffffffffffffffff1673ffffffffffffffffffffffffffffffffffffffff16815260200190815260200160002061292a90919063ffffffff16565b50611fa7818360026129449092919063ffffffff16565b50808273ffffffffffffffffffffffffffffffffffffffff16600073ffffffffffffffffffffffffffffffffffffffff167fddf252ad1be2c89b69c2b068fc378daa952ba7f163c4a11628f55a4df523b3ef60405160405180910390a45050565b61201182612092565b612066576040517f08c379a000000000000000000000000000000000000000000000000000000000815260040180806020018281038252602c815260200180613588602c913960400191505060405180910390fd5b8060086000848152602001908152602001600020908051906020019061208d929190613313565b505050565b60006120a882600261297990919063ffffffff16565b9050919050565b816004600083815260200190815260200160002060006101000a81548173ffffffffffffffffffffffffffffffffffffffff021916908373ffffffffffffffffffffffffffffffffffffffff160217905550808273ffffffffffffffffffffffffffffffffffffffff166121228361115a565b73ffffffffffffffffffffffffffffffffffffffff167f8c5be1e5ebec7d5bd14f71427d1e84f3dd0314c0f7b2291e5b200ac8c7c3b92560405160405180910390a45050565b600061217682600001612993565b9050919050565b600061218882612092565b6121dd576040517f08c379a000000000000000000000000000000000000000000000000000000000815260040180806020018281038252602c815260200180613483602c913960400191505060405180910390fd5b60006121e88361115a565b90508073ffffffffffffffffffffffffffffffffffffffff168473ffffffffffffffffffffffffffffffffffffffff16148061225757508373ffffffffffffffffffffffffffffffffffffffff1661223f84610e3e565b73ffffffffffffffffffffffffffffffffffffffff16145b8061226857506122678185611b83565b5b91505092915050565b8273ffffffffffffffffffffffffffffffffffffffff166122918261115a565b73ffffffffffffffffffffffffffffffffffffffff16146122fd576040517f08c379a00000000000000000000000000000000000000000000000000000000081526004018080602001828103825260298152602001806135b46029913960400191505060405180910390fd5b600073ffffffffffffffffffffffffffffffffffffffff168273ffffffffffffffffffffffffffffffffffffffff161415612383576040517f08c379a00000000000000000000000000000000000000000000000000000000081526004018080602001828103825260248152602001806134396024913960400191505060405180910390fd5b61238e838383612925565b6123996000826120af565b6123ea81600160008673ffffffffffffffffffffffffffffffffffffffff1673ffffffffffffffffffffffffffffffffffffffff1681526020019081526020016000206129a490919063ffffffff16565b5061243c81600160008573ffffffffffffffffffffffffffffffffffffffff1673ffffffffffffffffffffffffffffffffffffffff16815260200190815260200160002061292a90919063ffffffff16565b50612453818360026129449092919063ffffffff16565b50808273ffffffffffffffffffffffffffffffffffffffff168473ffffffffffffffffffffffffffffffffffffffff167fddf252ad1be2c89b69c2b068fc378daa952ba7f163c4a11628f55a4df523b3ef60405160405180910390a4505050565b60006124c383600001836129be565b60001c905092915050565b6000806000806124e18660000186612a41565b915091508160001c8160001c9350935050509250929050565b600061250d846000018460001b84612ada565b60001c90509392505050565b600061252782600001612bd0565b9050919050565b612539848484612271565b61254584848484612be1565b61259a576040517f08c379a00000000000000000000000000000000000000000000000000000000081526004018080602001828103825260328152602001806133e16032913960400191505060405180910390fd5b50505050565b606060008214156125e8576040518060400160405280600181526020017f300000000000000000000000000000000000000000000000000000000000000081525090506126e2565b600082905060005b60008214612612578080600101915050600a828161260a57fe5b0491506125f0565b60008167ffffffffffffffff8111801561262b57600080fd5b506040519080825280601f01601f19166020018201604052801561265e5781602001600182028036833780820191505090505b50905060006001830390508593505b600084146126da57600a848161267f57fe5b0660300160f81b8282806001900393508151811061269957fe5b60200101907effffffffffffffffffffffffffffffffffffffffffffffffffffffffffffff1916908160001a905350600a84816126d257fe5b04935061266d565b819450505050505b919050565b6126f081612092565b612762576040517f08c379a00000000000000000000000000000000000000000000000000000000081526004018080602001828103825260158152602001807f4572726f722c2077726f6e6720546f6b656e206964000000000000000000000081525060200191505060405180910390fd5b600c600082815260200190815260200160002060009054906101000a900460ff16156127f6576040517f08c379a00000000000000000000000000000000000000000000000000000000081526004018080602001828103825260148152602001807f4572726f722c20546f6b656e20697320736f6c6400000000000000000000000081525060200191505060405180910390fd5b600d60008281526020019081526020016000205434101561287f576040517f08c379a00000000000000000000000000000000000000000000000000000000081526004018080602001828103825260178152602001807f4572726f722c20546f6b656e20636f737473206d6f726500000000000000000081525060200191505060405180910390fd5b50565b61288d303383612271565b600b60009054906101000a900473ffffffffffffffffffffffffffffffffffffffff1673ffffffffffffffffffffffffffffffffffffffff166108fc349081150290604051600060405180830381858888f193505050501580156128f5573d6000803e3d6000fd5b506001600c600083815260200190815260200160002060006101000a81548160ff02191690831515021790555050565b505050565b600061293c836000018360001b612dfa565b905092915050565b6000612970846000018460001b8473ffffffffffffffffffffffffffffffffffffffff1660001b612e6a565b90509392505050565b600061298b836000018360001b612f46565b905092915050565b600081600001805490509050919050565b60006129b6836000018360001b612f69565b905092915050565b600081836000018054905011612a1f576040517f08c379a00000000000000000000000000000000000000000000000000000000081526004018080602001828103825260228152602001806133bf6022913960400191505060405180910390fd5b826000018281548110612a2e57fe5b9060005260206000200154905092915050565b60008082846000018054905011612aa3576040517f08c379a000000000000000000000000000000000000000000000000000000000815260040180806020018281038252602281526020018061353a6022913960400191505060405180910390fd5b6000846000018481548110612ab457fe5b906000526020600020906002020190508060000154816001015492509250509250929050565b60008084600101600085815260200190815260200160002054905060008114158390612ba1576040517f08c379a00000000000000000000000000000000000000000000000000000000081526004018080602001828103825283818151815260200191508051906020019080838360005b83811015612b66578082015181840152602081019050612b4b565b50505050905090810190601f168015612b935780820380516001836020036101000a031916815260200191505b509250505060405180910390fd5b50846000016001820381548110612bb457fe5b9060005260206000209060020201600101549150509392505050565b600081600001805490509050919050565b6000612c028473ffffffffffffffffffffffffffffffffffffffff16613051565b612c0f5760019050612df2565b6000612d7963150b7a0260e01b612c24611e0c565b888787604051602401808573ffffffffffffffffffffffffffffffffffffffff1681526020018473ffffffffffffffffffffffffffffffffffffffff16815260200183815260200180602001828103825283818151815260200191508051906020019080838360005b83811015612ca8578082015181840152602081019050612c8d565b50505050905090810190601f168015612cd55780820380516001836020036101000a031916815260200191505b5095505050505050604051602081830303815290604052907bffffffffffffffffffffffffffffffffffffffffffffffffffffffff19166020820180517bffffffffffffffffffffffffffffffffffffffffffffffffffffffff83818316178352505050506040518060600160405280603281526020016133e1603291398773ffffffffffffffffffffffffffffffffffffffff166130649092919063ffffffff16565b90506000818060200190516020811015612d9257600080fd5b8101908080519060200190929190505050905063150b7a0260e01b7bffffffffffffffffffffffffffffffffffffffffffffffffffffffff1916817bffffffffffffffffffffffffffffffffffffffffffffffffffffffff191614925050505b949350505050565b6000612e06838361307c565b612e5f578260000182908060018154018082558091505060019003906000526020600020016000909190919091505582600001805490508360010160008481526020019081526020016000208190555060019050612e64565b600090505b92915050565b6000808460010160008581526020019081526020016000205490506000811415612f1157846000016040518060400160405280868152602001858152509080600181540180825580915050600190039060005260206000209060020201600090919091909150600082015181600001556020820151816001015550508460000180549050856001016000868152602001908152602001600020819055506001915050612f3f565b82856000016001830381548110612f2457fe5b90600052602060002090600202016001018190555060009150505b9392505050565b600080836001016000848152602001908152602001600020541415905092915050565b600080836001016000848152602001908152602001600020549050600081146130455760006001820390506000600186600001805490500390506000866000018281548110612fb457fe5b9060005260206000200154905080876000018481548110612fd157fe5b906000526020600020018190555060018301876001016000838152602001908152602001600020819055508660000180548061300957fe5b6001900381819060005260206000200160009055905586600101600087815260200190815260200160002060009055600194505050505061304b565b60009150505b92915050565b600080823b905060008111915050919050565b6060613073848460008561309f565b90509392505050565b600080836001016000848152602001908152602001600020541415905092915050565b6060824710156130fa576040517f08c379a000000000000000000000000000000000000000000000000000000000815260040180806020018281038252602681526020018061345d6026913960400191505060405180910390fd5b61310385613051565b613175576040517f08c379a000000000000000000000000000000000000000000000000000000000815260040180806020018281038252601d8152602001807f416464726573733a2063616c6c20746f206e6f6e2d636f6e747261637400000081525060200191505060405180910390fd5b6000808673ffffffffffffffffffffffffffffffffffffffff1685876040518082805190602001908083835b602083106131c457805182526020820191506020810190506020830392506131a1565b6001836020036101000a03801982511681845116808217855250505050505090500191505060006040518083038185875af1925050503d8060008114613226576040519150601f19603f3d011682016040523d82523d6000602084013e61322b565b606091505b509150915061323b828286613247565b92505050949350505050565b606083156132575782905061330c565b60008351111561326a5782518084602001fd5b816040517f08c379a00000000000000000000000000000000000000000000000000000000081526004018080602001828103825283818151815260200191508051906020019080838360005b838110156132d15780820151818401526020810190506132b6565b50505050905090810190601f1680156132fe5780820380516001836020036101000a031916815260200191505b509250505060405180910390fd5b9392505050565b828054600181600116156101000203166002900490600052602060002090601f0160209004810192826133495760008555613390565b82601f1061336257805160ff1916838001178555613390565b82800160010185558215613390579182015b8281111561338f578251825591602001919060010190613374565b5b50905061339d91906133a1565b5090565b5b808211156133ba5760008160009055506001016133a2565b509056fe456e756d657261626c655365743a20696e646578206f7574206f6620626f756e64734552433732313a207472616e7366657220746f206e6f6e20455243373231526563656976657220696d706c656d656e7465724f776e61626c653a206e6577206f776e657220697320746865207a65726f20616464726573734552433732313a207472616e7366657220746f20746865207a65726f2061646472657373416464726573733a20696e73756666696369656e742062616c616e636520666f722063616c6c4552433732313a206f70657261746f7220717565727920666f72206e6f6e6578697374656e7420746f6b656e4552433732313a20617070726f76652063616c6c6572206973206e6f74206f776e6572206e6f7220617070726f76656420666f7220616c6c4552433732313a2062616c616e636520717565727920666f7220746865207a65726f20616464726573734552433732313a206f776e657220717565727920666f72206e6f6e6578697374656e7420746f6b656e456e756d657261626c654d61703a20696e646578206f7574206f6620626f756e64734552433732313a20617070726f76656420717565727920666f72206e6f6e6578697374656e7420746f6b656e4552433732314d657461646174613a2055524920736574206f66206e6f6e6578697374656e7420746f6b656e4552433732313a207472616e73666572206f6620746f6b656e2074686174206973206e6f74206f776e4552433732314d657461646174613a2055524920717565727920666f72206e6f6e6578697374656e7420746f6b656e4552433732313a20617070726f76616c20746f2063757272656e74206f776e65724552433732313a207472616e736665722063616c6c6572206973206e6f74206f776e6572206e6f7220617070726f766564a26469706673582212204252b8219c91912544552cf45e28ae81bd7ae42d4f41a5119a85d5c0f3723af464736f6c63430007060033",
  "immutableReferences": {},
  "source": "// SPDX-License-Identifier: MIT\r\npragma solidity >=0.6.0 <0.8.0;\r\n\r\nimport \"@openzeppelin/contracts/token/ERC721/ERC721.sol\";\r\nimport \"@openzeppelin/contracts/access/Ownable.sol\";\r\n\r\ncontract NFT is ERC721, Ownable {\r\n  address payable public _owner;\r\n  mapping(uint256 => bool) public sold;\r\n  mapping(uint256 => uint256) public price;\r\n\r\n  event Purchase(address owner, uint256 price, uint256 id, string uri);\r\n\r\n  constructor() ERC721(\"NFT EXAMPLE\", \"EXAMPLE\") {\r\n    _owner = msg.sender;\r\n  }\r\n\r\n  function mint(string memory _tokenURI, uint256 _price)\r\n    public\r\n    onlyOwner\r\n    returns (bool)\r\n  {\r\n    uint256 _tokenId = totalSupply() + 1;\r\n    price[_tokenId] = _price;\r\n\r\n    _mint(address(this), _tokenId);\r\n    _setTokenURI(_tokenId, _tokenURI);\r\n\r\n    return true;\r\n  }\r\n\r\n  function buy(uint256 _id) external payable {\r\n    _validate(_id);\r\n    _trade(_id);\r\n\r\n    emit Purchase(msg.sender, price[_id], _id, tokenURI(_id));\r\n  }\r\n\r\n  function _validate(uint256 _id) internal {\r\n    require(_exists(_id), \"Error, wrong Token id\");\r\n    require(!sold[_id], \"Error, Token is sold\");\r\n    require(msg.value >= price[_id], \"Error, Token costs more\");\r\n  }\r\n\r\n  function _trade(uint256 _id) internal {\r\n    _transfer(address(this), msg.sender, _id);\r\n    _owner.transfer(msg.value);\r\n    sold[_id] = true;\r\n  }\r\n}\r\n",
  "sourcePath": "/Users/garygeorge/Documents/development/boilerplate/nft-react-boilerplate/src/truffle/contracts/NFT.sol",
  "compiler": {
    "name": "solc",
    "version": "0.7.6+commit.7338295f.Emscripten.clang"
  },
  "schemaVersion": "3.4.2",
  "updatedAt": "2022-12-28T09:49:46.244Z",
  "networkType": "ethereum",
  "devdoc": {
    "kind": "dev",
    "methods": {
      "approve(address,uint256)": {
        "details": "See {IERC721-approve}."
      },
      "balanceOf(address)": {
        "details": "See {IERC721-balanceOf}."
      },
      "baseURI()": {
        "details": "Returns the base URI set via {_setBaseURI}. This will be automatically added as a prefix in {tokenURI} to each token's URI, or to the token ID if no specific URI is set for that token ID."
      },
      "getApproved(uint256)": {
        "details": "See {IERC721-getApproved}."
      },
      "isApprovedForAll(address,address)": {
        "details": "See {IERC721-isApprovedForAll}."
      },
      "name()": {
        "details": "See {IERC721Metadata-name}."
      },
      "owner()": {
        "details": "Returns the address of the current owner."
      },
      "ownerOf(uint256)": {
        "details": "See {IERC721-ownerOf}."
      },
      "renounceOwnership()": {
        "details": "Leaves the contract without owner. It will not be possible to call `onlyOwner` functions anymore. Can only be called by the current owner. NOTE: Renouncing ownership will leave the contract without an owner, thereby removing any functionality that is only available to the owner."
      },
      "safeTransferFrom(address,address,uint256)": {
        "details": "See {IERC721-safeTransferFrom}."
      },
      "safeTransferFrom(address,address,uint256,bytes)": {
        "details": "See {IERC721-safeTransferFrom}."
      },
      "setApprovalForAll(address,bool)": {
        "details": "See {IERC721-setApprovalForAll}."
      },
      "supportsInterface(bytes4)": {
        "details": "See {IERC165-supportsInterface}. Time complexity O(1), guaranteed to always use less than 30 000 gas."
      },
      "symbol()": {
        "details": "See {IERC721Metadata-symbol}."
      },
      "tokenByIndex(uint256)": {
        "details": "See {IERC721Enumerable-tokenByIndex}."
      },
      "tokenOfOwnerByIndex(address,uint256)": {
        "details": "See {IERC721Enumerable-tokenOfOwnerByIndex}."
      },
      "tokenURI(uint256)": {
        "details": "See {IERC721Metadata-tokenURI}."
      },
      "totalSupply()": {
        "details": "See {IERC721Enumerable-totalSupply}."
      },
      "transferFrom(address,address,uint256)": {
        "details": "See {IERC721-transferFrom}."
      },
      "transferOwnership(address)": {
        "details": "Transfers ownership of the contract to a new account (`newOwner`). Can only be called by the current owner."
      }
    },
    "version": 1
  },
  "userdoc": {
    "kind": "user",
    "methods": {},
    "version": 1
  }
}